{
  "_format": "hh-sol-artifact-1",
  "contractName": "POAPAttendance",
  "sourceName": "contracts/POAPAttendance.sol",
  "abi": [
    {
      "inputs": [],
      "stateMutability": "nonpayable",
      "type": "constructor"
    },
    {
      "inputs": [
        {
          "internalType": "address",
          "name": "sender",
          "type": "address"
        },
        {
          "internalType": "uint256",
          "name": "tokenId",
          "type": "uint256"
        },
        {
          "internalType": "address",
          "name": "owner",
          "type": "address"
        }
      ],
      "name": "ERC721IncorrectOwner",
      "type": "error"
    },
    {
      "inputs": [
        {
          "internalType": "address",
          "name": "operator",
          "type": "address"
        },
        {
          "internalType": "uint256",
          "name": "tokenId",
          "type": "uint256"
        }
      ],
      "name": "ERC721InsufficientApproval",
      "type": "error"
    },
    {
      "inputs": [
        {
          "internalType": "address",
          "name": "approver",
          "type": "address"
        }
      ],
      "name": "ERC721InvalidApprover",
      "type": "error"
    },
    {
      "inputs": [
        {
          "internalType": "address",
          "name": "operator",
          "type": "address"
        }
      ],
      "name": "ERC721InvalidOperator",
      "type": "error"
    },
    {
      "inputs": [
        {
          "internalType": "address",
          "name": "owner",
          "type": "address"
        }
      ],
      "name": "ERC721InvalidOwner",
      "type": "error"
    },
    {
      "inputs": [
        {
          "internalType": "address",
          "name": "receiver",
          "type": "address"
        }
      ],
      "name": "ERC721InvalidReceiver",
      "type": "error"
    },
    {
      "inputs": [
        {
          "internalType": "address",
          "name": "sender",
          "type": "address"
        }
      ],
      "name": "ERC721InvalidSender",
      "type": "error"
    },
    {
      "inputs": [
        {
          "internalType": "uint256",
          "name": "tokenId",
          "type": "uint256"
        }
      ],
      "name": "ERC721NonexistentToken",
      "type": "error"
    },
    {
      "inputs": [
        {
          "internalType": "address",
          "name": "owner",
          "type": "address"
        }
      ],
      "name": "OwnableInvalidOwner",
      "type": "error"
    },
    {
      "inputs": [
        {
          "internalType": "address",
          "name": "account",
          "type": "address"
        }
      ],
      "name": "OwnableUnauthorizedAccount",
      "type": "error"
    },
    {
      "anonymous": false,
      "inputs": [
        {
          "indexed": true,
          "internalType": "address",
          "name": "owner",
          "type": "address"
        },
        {
          "indexed": true,
          "internalType": "address",
          "name": "approved",
          "type": "address"
        },
        {
          "indexed": true,
          "internalType": "uint256",
          "name": "tokenId",
          "type": "uint256"
        }
      ],
      "name": "Approval",
      "type": "event"
    },
    {
      "anonymous": false,
      "inputs": [
        {
          "indexed": true,
          "internalType": "address",
          "name": "owner",
          "type": "address"
        },
        {
          "indexed": true,
          "internalType": "address",
          "name": "operator",
          "type": "address"
        },
        {
          "indexed": false,
          "internalType": "bool",
          "name": "approved",
          "type": "bool"
        }
      ],
      "name": "ApprovalForAll",
      "type": "event"
    },
    {
      "anonymous": false,
      "inputs": [
        {
          "indexed": true,
          "internalType": "address",
          "name": "student",
          "type": "address"
        },
        {
          "indexed": true,
          "internalType": "uint256",
          "name": "tokenId",
          "type": "uint256"
        },
        {
          "indexed": false,
          "internalType": "string",
          "name": "eventTitle",
          "type": "string"
        }
      ],
      "name": "BadgeMinted",
      "type": "event"
    },
    {
      "anonymous": false,
      "inputs": [
        {
          "indexed": false,
          "internalType": "uint256",
          "name": "_fromTokenId",
          "type": "uint256"
        },
        {
          "indexed": false,
          "internalType": "uint256",
          "name": "_toTokenId",
          "type": "uint256"
        }
      ],
      "name": "BatchMetadataUpdate",
      "type": "event"
    },
    {
      "anonymous": false,
      "inputs": [
        {
          "indexed": true,
          "internalType": "address",
          "name": "lecturer",
          "type": "address"
        }
      ],
      "name": "LecturerAdded",
      "type": "event"
    },
    {
      "anonymous": false,
      "inputs": [
        {
          "indexed": false,
          "internalType": "uint256",
          "name": "_tokenId",
          "type": "uint256"
        }
      ],
      "name": "MetadataUpdate",
      "type": "event"
    },
    {
      "anonymous": false,
      "inputs": [
        {
          "indexed": true,
          "internalType": "address",
          "name": "previousOwner",
          "type": "address"
        },
        {
          "indexed": true,
          "internalType": "address",
          "name": "newOwner",
          "type": "address"
        }
      ],
      "name": "OwnershipTransferred",
      "type": "event"
    },
    {
      "anonymous": false,
      "inputs": [
        {
          "indexed": true,
          "internalType": "address",
          "name": "from",
          "type": "address"
        },
        {
          "indexed": true,
          "internalType": "address",
          "name": "to",
          "type": "address"
        },
        {
          "indexed": true,
          "internalType": "uint256",
          "name": "tokenId",
          "type": "uint256"
        }
      ],
      "name": "Transfer",
      "type": "event"
    },
    {
      "inputs": [
        {
          "internalType": "address",
          "name": "lecturer",
          "type": "address"
        }
      ],
      "name": "addLecturer",
      "outputs": [],
      "stateMutability": "nonpayable",
      "type": "function"
    },
    {
      "inputs": [
        {
          "internalType": "address",
          "name": "to",
          "type": "address"
        },
        {
          "internalType": "uint256",
          "name": "tokenId",
          "type": "uint256"
        }
      ],
      "name": "approve",
      "outputs": [],
      "stateMutability": "nonpayable",
      "type": "function"
    },
    {
      "inputs": [
        {
          "internalType": "uint256",
          "name": "",
          "type": "uint256"
        }
      ],
      "name": "attendanceMetadata",
      "outputs": [
        {
          "internalType": "string",
          "name": "eventTitle",
          "type": "string"
        },
        {
          "internalType": "string",
          "name": "role",
          "type": "string"
        },
        {
          "internalType": "uint256",
          "name": "expiryTime",
          "type": "uint256"
        },
        {
          "internalType": "uint256",
          "name": "mintedAt",
          "type": "uint256"
        }
      ],
      "stateMutability": "view",
      "type": "function"
    },
    {
      "inputs": [
        {
          "internalType": "address",
          "name": "owner",
          "type": "address"
        }
      ],
      "name": "balanceOf",
      "outputs": [
        {
          "internalType": "uint256",
          "name": "",
          "type": "uint256"
        }
      ],
      "stateMutability": "view",
      "type": "function"
    },
    {
      "inputs": [
        {
          "internalType": "uint256",
          "name": "tokenId",
          "type": "uint256"
        }
      ],
      "name": "getApproved",
      "outputs": [
        {
          "internalType": "address",
          "name": "",
          "type": "address"
        }
      ],
      "stateMutability": "view",
      "type": "function"
    },
    {
      "inputs": [
        {
          "internalType": "uint256",
          "name": "tokenId",
          "type": "uint256"
        }
      ],
      "name": "getBadgeMetadata",
      "outputs": [
        {
          "internalType": "string",
          "name": "eventTitle",
          "type": "string"
        },
        {
          "internalType": "string",
          "name": "role",
          "type": "string"
        },
        {
          "internalType": "uint256",
          "name": "expiryTime",
          "type": "uint256"
        },
        {
          "internalType": "uint256",
          "name": "mintedAt",
          "type": "uint256"
        },
        {
          "internalType": "string",
          "name": "uri",
          "type": "string"
        }
      ],
      "stateMutability": "view",
      "type": "function"
    },
    {
      "inputs": [
        {
          "internalType": "address",
          "name": "student",
          "type": "address"
        }
      ],
      "name": "getStudentBadges",
      "outputs": [
        {
          "internalType": "uint256[]",
          "name": "",
          "type": "uint256[]"
        }
      ],
      "stateMutability": "view",
      "type": "function"
    },
    {
      "inputs": [
        {
          "internalType": "address",
          "name": "student",
          "type": "address"
        },
        {
          "internalType": "string",
          "name": "eventTitle",
          "type": "string"
        }
      ],
      "name": "hasValidBadge",
      "outputs": [
        {
          "internalType": "bool",
          "name": "",
          "type": "bool"
        }
      ],
      "stateMutability": "view",
      "type": "function"
    },
    {
      "inputs": [
        {
          "internalType": "address",
          "name": "owner",
          "type": "address"
        },
        {
          "internalType": "address",
          "name": "operator",
          "type": "address"
        }
      ],
      "name": "isApprovedForAll",
      "outputs": [
        {
          "internalType": "bool",
          "name": "",
          "type": "bool"
        }
      ],
      "stateMutability": "view",
      "type": "function"
    },
    {
      "inputs": [
        {
          "internalType": "uint256",
          "name": "tokenId",
          "type": "uint256"
        }
      ],
      "name": "isBadgeValid",
      "outputs": [
        {
          "internalType": "bool",
          "name": "",
          "type": "bool"
        }
      ],
      "stateMutability": "view",
      "type": "function"
    },
    {
      "inputs": [
        {
          "internalType": "address",
          "name": "",
          "type": "address"
        }
      ],
      "name": "lecturers",
      "outputs": [
        {
          "internalType": "bool",
          "name": "",
          "type": "bool"
        }
      ],
      "stateMutability": "view",
      "type": "function"
    },
    {
      "inputs": [
        {
          "internalType": "address",
          "name": "student",
          "type": "address"
        },
        {
          "internalType": "string",
          "name": "tokenURI",
          "type": "string"
        },
        {
          "internalType": "string",
          "name": "eventTitle",
          "type": "string"
        },
        {
          "internalType": "string",
          "name": "role",
          "type": "string"
        },
        {
          "internalType": "uint256",
          "name": "expiryTime",
          "type": "uint256"
        }
      ],
      "name": "mintBadge",
      "outputs": [],
      "stateMutability": "nonpayable",
      "type": "function"
    },
    {
      "inputs": [],
      "name": "name",
      "outputs": [
        {
          "internalType": "string",
          "name": "",
          "type": "string"
        }
      ],
      "stateMutability": "view",
      "type": "function"
    },
    {
      "inputs": [],
      "name": "owner",
      "outputs": [
        {
          "internalType": "address",
          "name": "",
          "type": "address"
        }
      ],
      "stateMutability": "view",
      "type": "function"
    },
    {
      "inputs": [
        {
          "internalType": "uint256",
          "name": "tokenId",
          "type": "uint256"
        }
      ],
      "name": "ownerOf",
      "outputs": [
        {
          "internalType": "address",
          "name": "",
          "type": "address"
        }
      ],
      "stateMutability": "view",
      "type": "function"
    },
    {
      "inputs": [
        {
          "internalType": "address",
          "name": "lecturer",
          "type": "address"
        }
      ],
      "name": "removeLecturer",
      "outputs": [],
      "stateMutability": "nonpayable",
      "type": "function"
    },
    {
      "inputs": [],
      "name": "renounceOwnership",
      "outputs": [],
      "stateMutability": "nonpayable",
      "type": "function"
    },
    {
      "inputs": [
        {
          "internalType": "address",
          "name": "from",
          "type": "address"
        },
        {
          "internalType": "address",
          "name": "to",
          "type": "address"
        },
        {
          "internalType": "uint256",
          "name": "tokenId",
          "type": "uint256"
        }
      ],
      "name": "safeTransferFrom",
      "outputs": [],
      "stateMutability": "nonpayable",
      "type": "function"
    },
    {
      "inputs": [
        {
          "internalType": "address",
          "name": "from",
          "type": "address"
        },
        {
          "internalType": "address",
          "name": "to",
          "type": "address"
        },
        {
          "internalType": "uint256",
          "name": "tokenId",
          "type": "uint256"
        },
        {
          "internalType": "bytes",
          "name": "data",
          "type": "bytes"
        }
      ],
      "name": "safeTransferFrom",
      "outputs": [],
      "stateMutability": "nonpayable",
      "type": "function"
    },
    {
      "inputs": [
        {
          "internalType": "address",
          "name": "operator",
          "type": "address"
        },
        {
          "internalType": "bool",
          "name": "approved",
          "type": "bool"
        }
      ],
      "name": "setApprovalForAll",
      "outputs": [],
      "stateMutability": "nonpayable",
      "type": "function"
    },
    {
      "inputs": [
        {
          "internalType": "address",
          "name": "",
          "type": "address"
        },
        {
          "internalType": "uint256",
          "name": "",
          "type": "uint256"
        }
      ],
      "name": "studentBadges",
      "outputs": [
        {
          "internalType": "uint256",
          "name": "",
          "type": "uint256"
        }
      ],
      "stateMutability": "view",
      "type": "function"
    },
    {
      "inputs": [
        {
          "internalType": "bytes4",
          "name": "interfaceId",
          "type": "bytes4"
        }
      ],
      "name": "supportsInterface",
      "outputs": [
        {
          "internalType": "bool",
          "name": "",
          "type": "bool"
        }
      ],
      "stateMutability": "view",
      "type": "function"
    },
    {
      "inputs": [],
      "name": "symbol",
      "outputs": [
        {
          "internalType": "string",
          "name": "",
          "type": "string"
        }
      ],
      "stateMutability": "view",
      "type": "function"
    },
    {
      "inputs": [
        {
          "internalType": "uint256",
          "name": "tokenId",
          "type": "uint256"
        }
      ],
      "name": "tokenURI",
      "outputs": [
        {
          "internalType": "string",
          "name": "",
          "type": "string"
        }
      ],
      "stateMutability": "view",
      "type": "function"
    },
    {
      "inputs": [
        {
          "internalType": "address",
          "name": "from",
          "type": "address"
        },
        {
          "internalType": "address",
          "name": "to",
          "type": "address"
        },
        {
          "internalType": "uint256",
          "name": "tokenId",
          "type": "uint256"
        }
      ],
      "name": "transferFrom",
      "outputs": [],
      "stateMutability": "nonpayable",
      "type": "function"
    },
    {
      "inputs": [
        {
          "internalType": "address",
          "name": "newOwner",
          "type": "address"
        }
      ],
      "name": "transferOwnership",
      "outputs": [],
      "stateMutability": "nonpayable",
      "type": "function"
    }
  ],
  "bytecode": "0x60806040523480156200001157600080fd5b50336040518060400160405280600f81526020017f417474656e64616e6365426164676500000000000000000000000000000000008152506040518060400160405280600581526020017f424144474500000000000000000000000000000000000000000000000000000081525081600090816200009091906200047a565b508060019081620000a291906200047a565b505050600073ffffffffffffffffffffffffffffffffffffffff168173ffffffffffffffffffffffffffffffffffffffff16036200011a5760006040517f1e4fbdf7000000000000000000000000000000000000000000000000000000008152600401620001119190620005a6565b60405180910390fd5b6200012b816200013a60201b60201c565b506001600881905550620005c3565b6000600760009054906101000a900473ffffffffffffffffffffffffffffffffffffffff16905081600760006101000a81548173ffffffffffffffffffffffffffffffffffffffff021916908373ffffffffffffffffffffffffffffffffffffffff1602179055508173ffffffffffffffffffffffffffffffffffffffff168173ffffffffffffffffffffffffffffffffffffffff167f8be0079c531659141344cd1fd0a4f28419497f9722a3daafe3b4186f6b6457e060405160405180910390a35050565b600081519050919050565b7f4e487b7100000000000000000000000000000000000000000000000000000000600052604160045260246000fd5b7f4e487b7100000000000000000000000000000000000000000000000000000000600052602260045260246000fd5b600060028204905060018216806200028257607f821691505b6020821081036200029857620002976200023a565b5b50919050565b60008190508160005260206000209050919050565b60006020601f8301049050919050565b600082821b905092915050565b600060088302620003027fffffffffffffffffffffffffffffffffffffffffffffffffffffffffffffffff82620002c3565b6200030e8683620002c3565b95508019841693508086168417925050509392505050565b6000819050919050565b6000819050919050565b60006200035b620003556200034f8462000326565b62000330565b62000326565b9050919050565b6000819050919050565b62000377836200033a565b6200038f620003868262000362565b848454620002d0565b825550505050565b600090565b620003a662000397565b620003b38184846200036c565b505050565b5b81811015620003db57620003cf6000826200039c565b600181019050620003b9565b5050565b601f8211156200042a57620003f4816200029e565b620003ff84620002b3565b810160208510156200040f578190505b620004276200041e85620002b3565b830182620003b8565b50505b505050565b600082821c905092915050565b60006200044f600019846008026200042f565b1980831691505092915050565b60006200046a83836200043c565b9150826002028217905092915050565b620004858262000200565b67ffffffffffffffff811115620004a157620004a06200020b565b5b620004ad825462000269565b620004ba828285620003df565b600060209050601f831160018114620004f25760008415620004dd578287015190505b620004e985826200045c565b86555062000559565b601f19841662000502866200029e565b60005b828110156200052c5784890151825560018201915060208501945060208101905062000505565b868310156200054c578489015162000548601f8916826200043c565b8355505b6001600288020188555050505b505050505050565b600073ffffffffffffffffffffffffffffffffffffffff82169050919050565b60006200058e8262000561565b9050919050565b620005a08162000581565b82525050565b6000602082019050620005bd600083018462000595565b92915050565b6139ab80620005d36000396000f3fe608060405234801561001057600080fd5b506004361061018e5760003560e01c8063896cba97116100de578063b88d4fde11610097578063e985e9c511610071578063e985e9c5146104bb578063ed756ff7146104eb578063f2fde38b1461051e578063fc9250601461053a5761018e565b8063b88d4fde1461043b578063c87b56dd14610457578063d19b6106146104875761018e565b8063896cba971461037b5780638da5cb5b1461039757806395d89b41146103b55780639ee8921b146103d3578063a22cb46514610403578063b13ecb731461041f5761018e565b806342842e0e1161014b57806370a082311161012557806370a08231146102f5578063715018a614610325578063727b9dbe1461032f578063839989f81461035f5761018e565b806342842e0e14610279578063547cd644146102955780636352211e146102c55761018e565b806301ffc9a71461019357806306fdde03146101c3578063081812fc146101e1578063095ea7b3146102115780630f4d9b011461022d57806323b872dd1461025d575b600080fd5b6101ad60048036038101906101a89190612928565b61056a565b6040516101ba9190612970565b60405180910390f35b6101cb6105cb565b6040516101d89190612a1b565b60405180910390f35b6101fb60048036038101906101f69190612a73565b61065d565b6040516102089190612ae1565b60405180910390f35b61022b60048036038101906102269190612b28565b610679565b005b61024760048036038101906102429190612a73565b61068f565b6040516102549190612970565b60405180910390f35b61027760048036038101906102729190612b68565b610852565b005b610293600480360381019061028e9190612b68565b610954565b005b6102af60048036038101906102aa9190612b28565b610974565b6040516102bc9190612bca565b60405180910390f35b6102df60048036038101906102da9190612a73565b6109a5565b6040516102ec9190612ae1565b60405180910390f35b61030f600480360381019061030a9190612be5565b6109b7565b60405161031c9190612bca565b60405180910390f35b61032d610a71565b005b61034960048036038101906103449190612d47565b610a85565b6040516103569190612970565b60405180910390f35b61037960048036038101906103749190612da3565b610cfe565b005b61039560048036038101906103909190612be5565b610f79565b005b61039f610fdc565b6040516103ac9190612ae1565b60405180910390f35b6103bd611006565b6040516103ca9190612a1b565b60405180910390f35b6103ed60048036038101906103e89190612be5565b611098565b6040516103fa9190612f30565b60405180910390f35b61041d60048036038101906104189190612f7e565b61112f565b005b61043960048036038101906104349190612be5565b611145565b005b6104556004803603810190610450919061305f565b6111eb565b005b610471600480360381019061046c9190612a73565b611210565b60405161047e9190612a1b565b60405180910390f35b6104a1600480360381019061049c9190612a73565b611323565b6040516104b29594939291906130e2565b60405180910390f35b6104d560048036038101906104d0919061314a565b6114fe565b6040516104e29190612970565b60405180910390f35b61050560048036038101906105009190612a73565b611592565b604051610515949392919061318a565b60405180910390f35b61053860048036038101906105339190612be5565b6116d2565b005b610554600480360381019061054f9190612be5565b611758565b6040516105619190612970565b60405180910390f35b6000634906490660e01b7bffffffffffffffffffffffffffffffffffffffffffffffffffffffff1916827bffffffffffffffffffffffffffffffffffffffffffffffffffffffff191614806105c457506105c382611778565b5b9050919050565b6060600080546105da9061320c565b80601f01602080910402602001604051908101604052809291908181526020018280546106069061320c565b80156106535780601f1061062857610100808354040283529160200191610653565b820191906000526020600020905b81548152906001019060200180831161063657829003601f168201915b5050505050905090565b60006106688261185a565b50610672826118e2565b9050919050565b61068b828261068661191f565b611927565b5050565b600061069a82611939565b6106d9576040517f08c379a00000000000000000000000000000000000000000000000000000000081526004016106d090613289565b60405180910390fd5b6000600960008481526020019081526020016000206040518060800160405290816000820180546107099061320c565b80601f01602080910402602001604051908101604052809291908181526020018280546107359061320c565b80156107825780601f1061075757610100808354040283529160200191610782565b820191906000526020600020905b81548152906001019060200180831161076557829003601f168201915b5050505050815260200160018201805461079b9061320c565b80601f01602080910402602001604051908101604052809291908181526020018280546107c79061320c565b80156108145780601f106107e957610100808354040283529160200191610814565b820191906000526020600020905b8154815290600101906020018083116107f757829003601f168201915b5050505050815260200160028201548152602001600382015481525050905060008160400151148061084a575080604001514211155b915050919050565b600073ffffffffffffffffffffffffffffffffffffffff168273ffffffffffffffffffffffffffffffffffffffff16036108c45760006040517f64a0ae920000000000000000000000000000000000000000000000000000000081526004016108bb9190612ae1565b60405180910390fd5b60006108d883836108d361191f565b61197a565b90508373ffffffffffffffffffffffffffffffffffffffff168173ffffffffffffffffffffffffffffffffffffffff161461094e578382826040517f64283d7b000000000000000000000000000000000000000000000000000000008152600401610945939291906132a9565b60405180910390fd5b50505050565b61096f838383604051806020016040528060008152506111eb565b505050565b600b602052816000526040600020818154811061099057600080fd5b90600052602060002001600091509150505481565b60006109b08261185a565b9050919050565b60008073ffffffffffffffffffffffffffffffffffffffff168273ffffffffffffffffffffffffffffffffffffffff1603610a2a5760006040517f89c62b64000000000000000000000000000000000000000000000000000000008152600401610a219190612ae1565b60405180910390fd5b600360008373ffffffffffffffffffffffffffffffffffffffff1673ffffffffffffffffffffffffffffffffffffffff168152602001908152602001600020549050919050565b610a79611a0c565b610a836000611a93565b565b600080600b60008573ffffffffffffffffffffffffffffffffffffffff1673ffffffffffffffffffffffffffffffffffffffff168152602001908152602001600020805480602002602001604051908101604052809291908181526020018280548015610b1157602002820191906000526020600020905b815481526020019060010190808311610afd575b5050505050905060005b8151811015610cf157600060096000848481518110610b3d57610b3c6132e0565b5b60200260200101518152602001908152602001600020604051806080016040529081600082018054610b6e9061320c565b80601f0160208091040260200160405190810160405280929190818152602001828054610b9a9061320c565b8015610be75780601f10610bbc57610100808354040283529160200191610be7565b820191906000526020600020905b815481529060010190602001808311610bca57829003601f168201915b50505050508152602001600182018054610c009061320c565b80601f0160208091040260200160405190810160405280929190818152602001828054610c2c9061320c565b8015610c795780601f10610c4e57610100808354040283529160200191610c79565b820191906000526020600020905b815481529060010190602001808311610c5c57829003601f168201915b505050505081526020016002820154815260200160038201548152505090508480519060200120816000015180519060200120148015610ccc5750600081604001511480610ccb575080604001514211155b5b15610cdd5760019350505050610cf8565b508080610ce99061333e565b915050610b1b565b5060009150505b92915050565b600a60003373ffffffffffffffffffffffffffffffffffffffff1673ffffffffffffffffffffffffffffffffffffffff16815260200190815260200160002060009054906101000a900460ff16610d8a576040517f08c379a0000000000000000000000000000000000000000000000000000000008152600401610d81906133d2565b60405180910390fd5b6000845111610dce576040517f08c379a0000000000000000000000000000000000000000000000000000000008152600401610dc59061343e565b60405180910390fd5b6000835111610e12576040517f08c379a0000000000000000000000000000000000000000000000000000000008152600401610e09906134aa565b60405180910390fd5b6000600854905060086000815480929190610e2c9061333e565b9190505550610e3b8682611b59565b610e458186611b77565b604051806080016040528085815260200184815260200183815260200142815250600960008381526020019081526020016000206000820151816000019081610e8e9190613676565b506020820151816001019081610ea49190613676565b506040820151816002015560608201518160030155905050600b60008773ffffffffffffffffffffffffffffffffffffffff1673ffffffffffffffffffffffffffffffffffffffff168152602001908152602001600020819080600181540180825580915050600190039060005260206000200160009091909190915055808673ffffffffffffffffffffffffffffffffffffffff167f6854c057dc92416510857b3daad5434a4202a4d192cf0f85d496d91974efaea386604051610f699190612a1b565b60405180910390a3505050505050565b610f81611a0c565b6000600a60008373ffffffffffffffffffffffffffffffffffffffff1673ffffffffffffffffffffffffffffffffffffffff16815260200190815260200160002060006101000a81548160ff02191690831515021790555050565b6000600760009054906101000a900473ffffffffffffffffffffffffffffffffffffffff16905090565b6060600180546110159061320c565b80601f01602080910402602001604051908101604052809291908181526020018280546110419061320c565b801561108e5780601f106110635761010080835404028352916020019161108e565b820191906000526020600020905b81548152906001019060200180831161107157829003601f168201915b5050505050905090565b6060600b60008373ffffffffffffffffffffffffffffffffffffffff1673ffffffffffffffffffffffffffffffffffffffff16815260200190815260200160002080548060200260200160405190810160405280929190818152602001828054801561112357602002820191906000526020600020905b81548152602001906001019080831161110f575b50505050509050919050565b61114161113a61191f565b8383611bd3565b5050565b61114d611a0c565b6001600a60008373ffffffffffffffffffffffffffffffffffffffff1673ffffffffffffffffffffffffffffffffffffffff16815260200190815260200160002060006101000a81548160ff0219169083151502179055508073ffffffffffffffffffffffffffffffffffffffff167f46e79aee029464191c76c1f42bfe29ac7b7fa4b5159526c33fc2d31ef350f3fd60405160405180910390a250565b6111f6848484610852565b61120a61120161191f565b85858585611d42565b50505050565b606061121b8261185a565b50600060066000848152602001908152602001600020805461123c9061320c565b80601f01602080910402602001604051908101604052809291908181526020018280546112689061320c565b80156112b55780601f1061128a576101008083540402835291602001916112b5565b820191906000526020600020905b81548152906001019060200180831161129857829003601f168201915b5050505050905060006112c6611ef3565b905060008151036112db57819250505061131e565b6000825111156113105780826040516020016112f8929190613784565b6040516020818303038152906040529250505061131e565b61131984611f0a565b925050505b919050565b606080600080606061133486611939565b611373576040517f08c379a000000000000000000000000000000000000000000000000000000000815260040161136a90613289565b60405180910390fd5b6000600960008881526020019081526020016000206040518060800160405290816000820180546113a39061320c565b80601f01602080910402602001604051908101604052809291908181526020018280546113cf9061320c565b801561141c5780601f106113f15761010080835404028352916020019161141c565b820191906000526020600020905b8154815290600101906020018083116113ff57829003601f168201915b505050505081526020016001820180546114359061320c565b80601f01602080910402602001604051908101604052809291908181526020018280546114619061320c565b80156114ae5780601f10611483576101008083540402835291602001916114ae565b820191906000526020600020905b81548152906001019060200180831161149157829003601f168201915b5050505050815260200160028201548152602001600382015481525050905080600001518160200151826040015183606001516114ea8b611210565b955095509550955095505091939590929450565b6000600560008473ffffffffffffffffffffffffffffffffffffffff1673ffffffffffffffffffffffffffffffffffffffff16815260200190815260200160002060008373ffffffffffffffffffffffffffffffffffffffff1673ffffffffffffffffffffffffffffffffffffffff16815260200190815260200160002060009054906101000a900460ff16905092915050565b60096020528060005260406000206000915090508060000180546115b59061320c565b80601f01602080910402602001604051908101604052809291908181526020018280546115e19061320c565b801561162e5780601f106116035761010080835404028352916020019161162e565b820191906000526020600020905b81548152906001019060200180831161161157829003601f168201915b5050505050908060010180546116439061320c565b80601f016020809104026020016040519081016040528092919081815260200182805461166f9061320c565b80156116bc5780601f10611691576101008083540402835291602001916116bc565b820191906000526020600020905b81548152906001019060200180831161169f57829003601f168201915b5050505050908060020154908060030154905084565b6116da611a0c565b600073ffffffffffffffffffffffffffffffffffffffff168173ffffffffffffffffffffffffffffffffffffffff160361174c5760006040517f1e4fbdf70000000000000000000000000000000000000000000000000000000081526004016117439190612ae1565b60405180910390fd5b61175581611a93565b50565b600a6020528060005260406000206000915054906101000a900460ff1681565b60007f80ac58cd000000000000000000000000000000000000000000000000000000007bffffffffffffffffffffffffffffffffffffffffffffffffffffffff1916827bffffffffffffffffffffffffffffffffffffffffffffffffffffffff1916148061184357507f5b5e139f000000000000000000000000000000000000000000000000000000007bffffffffffffffffffffffffffffffffffffffffffffffffffffffff1916827bffffffffffffffffffffffffffffffffffffffffffffffffffffffff1916145b80611853575061185282611f73565b5b9050919050565b60008061186683611fdd565b9050600073ffffffffffffffffffffffffffffffffffffffff168173ffffffffffffffffffffffffffffffffffffffff16036118d957826040517f7e2732890000000000000000000000000000000000000000000000000000000081526004016118d09190612bca565b60405180910390fd5b80915050919050565b60006004600083815260200190815260200160002060009054906101000a900473ffffffffffffffffffffffffffffffffffffffff169050919050565b600033905090565b611934838383600161201a565b505050565b60008073ffffffffffffffffffffffffffffffffffffffff1661195b83611fdd565b73ffffffffffffffffffffffffffffffffffffffff1614159050919050565b60008061198684611fdd565b9050600073ffffffffffffffffffffffffffffffffffffffff168173ffffffffffffffffffffffffffffffffffffffff16146119f7576040517f08c379a00000000000000000000000000000000000000000000000000000000081526004016119ee9061381a565b60405180910390fd5b611a028585856121df565b9150509392505050565b611a1461191f565b73ffffffffffffffffffffffffffffffffffffffff16611a32610fdc565b73ffffffffffffffffffffffffffffffffffffffff1614611a9157611a5561191f565b6040517f118cdaa7000000000000000000000000000000000000000000000000000000008152600401611a889190612ae1565b60405180910390fd5b565b6000600760009054906101000a900473ffffffffffffffffffffffffffffffffffffffff16905081600760006101000a81548173ffffffffffffffffffffffffffffffffffffffff021916908373ffffffffffffffffffffffffffffffffffffffff1602179055508173ffffffffffffffffffffffffffffffffffffffff168173ffffffffffffffffffffffffffffffffffffffff167f8be0079c531659141344cd1fd0a4f28419497f9722a3daafe3b4186f6b6457e060405160405180910390a35050565b611b738282604051806020016040528060008152506123f9565b5050565b80600660008481526020019081526020016000209081611b979190613676565b507ff8e1a15aba9398e019f0b49df1a4fde98ee17ae345cb5f6b5e2c27f5033e8ce782604051611bc79190612bca565b60405180910390a15050565b600073ffffffffffffffffffffffffffffffffffffffff168273ffffffffffffffffffffffffffffffffffffffff1603611c4457816040517f5b08ba18000000000000000000000000000000000000000000000000000000008152600401611c3b9190612ae1565b60405180910390fd5b80600560008573ffffffffffffffffffffffffffffffffffffffff1673ffffffffffffffffffffffffffffffffffffffff16815260200190815260200160002060008473ffffffffffffffffffffffffffffffffffffffff1673ffffffffffffffffffffffffffffffffffffffff16815260200190815260200160002060006101000a81548160ff0219169083151502179055508173ffffffffffffffffffffffffffffffffffffffff168373ffffffffffffffffffffffffffffffffffffffff167f17307eab39ab6107e8899845ad3d59bd9653f200f220920489ca2b5937696c3183604051611d359190612970565b60405180910390a3505050565b60008373ffffffffffffffffffffffffffffffffffffffff163b1115611eec578273ffffffffffffffffffffffffffffffffffffffff1663150b7a02868685856040518563ffffffff1660e01b8152600401611da1949392919061388f565b6020604051808303816000875af1925050508015611ddd57506040513d601f19601f82011682018060405250810190611dda91906138f0565b60015b611e61573d8060008114611e0d576040519150601f19603f3d011682016040523d82523d6000602084013e611e12565b606091505b506000815103611e5957836040517f64a0ae92000000000000000000000000000000000000000000000000000000008152600401611e509190612ae1565b60405180910390fd5b805181602001fd5b63150b7a0260e01b7bffffffffffffffffffffffffffffffffffffffffffffffffffffffff1916817bffffffffffffffffffffffffffffffffffffffffffffffffffffffff191614611eea57836040517f64a0ae92000000000000000000000000000000000000000000000000000000008152600401611ee19190612ae1565b60405180910390fd5b505b5050505050565b606060405180602001604052806000815250905090565b6060611f158261185a565b506000611f20611ef3565b90506000815111611f405760405180602001604052806000815250611f6b565b80611f4a8461241d565b604051602001611f5b929190613784565b6040516020818303038152906040525b915050919050565b60007f01ffc9a7000000000000000000000000000000000000000000000000000000007bffffffffffffffffffffffffffffffffffffffffffffffffffffffff1916827bffffffffffffffffffffffffffffffffffffffffffffffffffffffff1916149050919050565b60006002600083815260200190815260200160002060009054906101000a900473ffffffffffffffffffffffffffffffffffffffff169050919050565b80806120535750600073ffffffffffffffffffffffffffffffffffffffff168273ffffffffffffffffffffffffffffffffffffffff1614155b156121875760006120638461185a565b9050600073ffffffffffffffffffffffffffffffffffffffff168373ffffffffffffffffffffffffffffffffffffffff16141580156120ce57508273ffffffffffffffffffffffffffffffffffffffff168173ffffffffffffffffffffffffffffffffffffffff1614155b80156120e157506120df81846114fe565b155b1561212357826040517fa9fbf51f00000000000000000000000000000000000000000000000000000000815260040161211a9190612ae1565b60405180910390fd5b811561218557838573ffffffffffffffffffffffffffffffffffffffff168273ffffffffffffffffffffffffffffffffffffffff167f8c5be1e5ebec7d5bd14f71427d1e84f3dd0314c0f7b2291e5b200ac8c7c3b92560405160405180910390a45b505b836004600085815260200190815260200160002060006101000a81548173ffffffffffffffffffffffffffffffffffffffff021916908373ffffffffffffffffffffffffffffffffffffffff16021790555050505050565b6000806121eb84611fdd565b9050600073ffffffffffffffffffffffffffffffffffffffff168373ffffffffffffffffffffffffffffffffffffffff161461222d5761222c8184866124eb565b5b600073ffffffffffffffffffffffffffffffffffffffff168173ffffffffffffffffffffffffffffffffffffffff16146122be5761226f60008560008061201a565b6001600360008373ffffffffffffffffffffffffffffffffffffffff1673ffffffffffffffffffffffffffffffffffffffff168152602001908152602001600020600082825403925050819055505b600073ffffffffffffffffffffffffffffffffffffffff168573ffffffffffffffffffffffffffffffffffffffff1614612341576001600360008773ffffffffffffffffffffffffffffffffffffffff1673ffffffffffffffffffffffffffffffffffffffff168152602001908152602001600020600082825401925050819055505b846002600086815260200190815260200160002060006101000a81548173ffffffffffffffffffffffffffffffffffffffff021916908373ffffffffffffffffffffffffffffffffffffffff160217905550838573ffffffffffffffffffffffffffffffffffffffff168273ffffffffffffffffffffffffffffffffffffffff167fddf252ad1be2c89b69c2b068fc378daa952ba7f163c4a11628f55a4df523b3ef60405160405180910390a4809150509392505050565b61240383836125af565b61241861240e61191f565b6000858585611d42565b505050565b60606000600161242c846126a8565b01905060008167ffffffffffffffff81111561244b5761244a612c1c565b5b6040519080825280601f01601f19166020018201604052801561247d5781602001600182028036833780820191505090505b509050600082602001820190505b6001156124e0578080600190039150507f3031323334353637383961626364656600000000000000000000000000000000600a86061a8153600a85816124d4576124d361391d565b5b0494506000850361248b575b819350505050919050565b6124f68383836127fb565b6125aa57600073ffffffffffffffffffffffffffffffffffffffff168373ffffffffffffffffffffffffffffffffffffffff160361256b57806040517f7e2732890000000000000000000000000000000000000000000000000000000081526004016125629190612bca565b60405180910390fd5b81816040517f177e802f0000000000000000000000000000000000000000000000000000000081526004016125a192919061394c565b60405180910390fd5b505050565b600073ffffffffffffffffffffffffffffffffffffffff168273ffffffffffffffffffffffffffffffffffffffff16036126215760006040517f64a0ae920000000000000000000000000000000000000000000000000000000081526004016126189190612ae1565b60405180910390fd5b600061262f8383600061197a565b9050600073ffffffffffffffffffffffffffffffffffffffff168173ffffffffffffffffffffffffffffffffffffffff16146126a35760006040517f73c6ac6e00000000000000000000000000000000000000000000000000000000815260040161269a9190612ae1565b60405180910390fd5b505050565b600080600090507a184f03e93ff9f4daa797ed6e38ed64bf6a1f0100000000000000008310612706577a184f03e93ff9f4daa797ed6e38ed64bf6a1f01000000000000000083816126fc576126fb61391d565b5b0492506040810190505b6d04ee2d6d415b85acef81000000008310612743576d04ee2d6d415b85acef810000000083816127395761273861391d565b5b0492506020810190505b662386f26fc10000831061277257662386f26fc1000083816127685761276761391d565b5b0492506010810190505b6305f5e100831061279b576305f5e10083816127915761279061391d565b5b0492506008810190505b61271083106127c05761271083816127b6576127b561391d565b5b0492506004810190505b606483106127e357606483816127d9576127d861391d565b5b0492506002810190505b600a83106127f2576001810190505b80915050919050565b60008073ffffffffffffffffffffffffffffffffffffffff168373ffffffffffffffffffffffffffffffffffffffff16141580156128b357508273ffffffffffffffffffffffffffffffffffffffff168473ffffffffffffffffffffffffffffffffffffffff161480612874575061287384846114fe565b5b806128b257508273ffffffffffffffffffffffffffffffffffffffff1661289a836118e2565b73ffffffffffffffffffffffffffffffffffffffff16145b5b90509392505050565b6000604051905090565b600080fd5b600080fd5b60007fffffffff0000000000000000000000000000000000000000000000000000000082169050919050565b612905816128d0565b811461291057600080fd5b50565b600081359050612922816128fc565b92915050565b60006020828403121561293e5761293d6128c6565b5b600061294c84828501612913565b91505092915050565b60008115159050919050565b61296a81612955565b82525050565b60006020820190506129856000830184612961565b92915050565b600081519050919050565b600082825260208201905092915050565b60005b838110156129c55780820151818401526020810190506129aa565b60008484015250505050565b6000601f19601f8301169050919050565b60006129ed8261298b565b6129f78185612996565b9350612a078185602086016129a7565b612a10816129d1565b840191505092915050565b60006020820190508181036000830152612a3581846129e2565b905092915050565b6000819050919050565b612a5081612a3d565b8114612a5b57600080fd5b50565b600081359050612a6d81612a47565b92915050565b600060208284031215612a8957612a886128c6565b5b6000612a9784828501612a5e565b91505092915050565b600073ffffffffffffffffffffffffffffffffffffffff82169050919050565b6000612acb82612aa0565b9050919050565b612adb81612ac0565b82525050565b6000602082019050612af66000830184612ad2565b92915050565b612b0581612ac0565b8114612b1057600080fd5b50565b600081359050612b2281612afc565b92915050565b60008060408385031215612b3f57612b3e6128c6565b5b6000612b4d85828601612b13565b9250506020612b5e85828601612a5e565b9150509250929050565b600080600060608486031215612b8157612b806128c6565b5b6000612b8f86828701612b13565b9350506020612ba086828701612b13565b9250506040612bb186828701612a5e565b9150509250925092565b612bc481612a3d565b82525050565b6000602082019050612bdf6000830184612bbb565b92915050565b600060208284031215612bfb57612bfa6128c6565b5b6000612c0984828501612b13565b91505092915050565b600080fd5b600080fd5b7f4e487b7100000000000000000000000000000000000000000000000000000000600052604160045260246000fd5b612c54826129d1565b810181811067ffffffffffffffff82111715612c7357612c72612c1c565b5b80604052505050565b6000612c866128bc565b9050612c928282612c4b565b919050565b600067ffffffffffffffff821115612cb257612cb1612c1c565b5b612cbb826129d1565b9050602081019050919050565b82818337600083830152505050565b6000612cea612ce584612c97565b612c7c565b905082815260208101848484011115612d0657612d05612c17565b5b612d11848285612cc8565b509392505050565b600082601f830112612d2e57612d2d612c12565b5b8135612d3e848260208601612cd7565b91505092915050565b60008060408385031215612d5e57612d5d6128c6565b5b6000612d6c85828601612b13565b925050602083013567ffffffffffffffff811115612d8d57612d8c6128cb565b5b612d9985828601612d19565b9150509250929050565b600080600080600060a08688031215612dbf57612dbe6128c6565b5b6000612dcd88828901612b13565b955050602086013567ffffffffffffffff811115612dee57612ded6128cb565b5b612dfa88828901612d19565b945050604086013567ffffffffffffffff811115612e1b57612e1a6128cb565b5b612e2788828901612d19565b935050606086013567ffffffffffffffff811115612e4857612e476128cb565b5b612e5488828901612d19565b9250506080612e6588828901612a5e565b9150509295509295909350565b600081519050919050565b600082825260208201905092915050565b6000819050602082019050919050565b612ea781612a3d565b82525050565b6000612eb98383612e9e565b60208301905092915050565b6000602082019050919050565b6000612edd82612e72565b612ee78185612e7d565b9350612ef283612e8e565b8060005b83811015612f23578151612f0a8882612ead565b9750612f1583612ec5565b925050600181019050612ef6565b5085935050505092915050565b60006020820190508181036000830152612f4a8184612ed2565b905092915050565b612f5b81612955565b8114612f6657600080fd5b50565b600081359050612f7881612f52565b92915050565b60008060408385031215612f9557612f946128c6565b5b6000612fa385828601612b13565b9250506020612fb485828601612f69565b9150509250929050565b600067ffffffffffffffff821115612fd957612fd8612c1c565b5b612fe2826129d1565b9050602081019050919050565b6000613002612ffd84612fbe565b612c7c565b90508281526020810184848401111561301e5761301d612c17565b5b613029848285612cc8565b509392505050565b600082601f83011261304657613045612c12565b5b8135613056848260208601612fef565b91505092915050565b60008060008060808587031215613079576130786128c6565b5b600061308787828801612b13565b945050602061309887828801612b13565b93505060406130a987828801612a5e565b925050606085013567ffffffffffffffff8111156130ca576130c96128cb565b5b6130d687828801613031565b91505092959194509250565b600060a08201905081810360008301526130fc81886129e2565b9050818103602083015261311081876129e2565b905061311f6040830186612bbb565b61312c6060830185612bbb565b818103608083015261313e81846129e2565b90509695505050505050565b60008060408385031215613161576131606128c6565b5b600061316f85828601612b13565b925050602061318085828601612b13565b9150509250929050565b600060808201905081810360008301526131a481876129e2565b905081810360208301526131b881866129e2565b90506131c76040830185612bbb565b6131d46060830184612bbb565b95945050505050565b7f4e487b7100000000000000000000000000000000000000000000000000000000600052602260045260246000fd5b6000600282049050600182168061322457607f821691505b602082108103613237576132366131dd565b5b50919050565b7f426164676520646f6573206e6f74206578697374000000000000000000000000600082015250565b6000613273601483612996565b915061327e8261323d565b602082019050919050565b600060208201905081810360008301526132a281613266565b9050919050565b60006060820190506132be6000830186612ad2565b6132cb6020830185612bbb565b6132d86040830184612ad2565b949350505050565b7f4e487b7100000000000000000000000000000000000000000000000000000000600052603260045260246000fd5b7f4e487b7100000000000000000000000000000000000000000000000000000000600052601160045260246000fd5b600061334982612a3d565b91507fffffffffffffffffffffffffffffffffffffffffffffffffffffffffffffffff820361337b5761337a61330f565b5b600182019050919050565b7f4f6e6c79206c65637475726572732063616e206d696e74206261646765730000600082015250565b60006133bc601e83612996565b91506133c782613386565b602082019050919050565b600060208201905081810360008301526133eb816133af565b9050919050565b7f546f6b656e205552492063616e6e6f7420626520656d70747900000000000000600082015250565b6000613428601983612996565b9150613433826133f2565b602082019050919050565b600060208201905081810360008301526134578161341b565b9050919050565b7f4576656e74207469746c652063616e6e6f7420626520656d7074790000000000600082015250565b6000613494601b83612996565b915061349f8261345e565b602082019050919050565b600060208201905081810360008301526134c381613487565b9050919050565b60008190508160005260206000209050919050565b60006020601f8301049050919050565b600082821b905092915050565b60006008830261352c7fffffffffffffffffffffffffffffffffffffffffffffffffffffffffffffffff826134ef565b61353686836134ef565b95508019841693508086168417925050509392505050565b6000819050919050565b600061357361356e61356984612a3d565b61354e565b612a3d565b9050919050565b6000819050919050565b61358d83613558565b6135a16135998261357a565b8484546134fc565b825550505050565b600090565b6135b66135a9565b6135c1818484613584565b505050565b5b818110156135e5576135da6000826135ae565b6001810190506135c7565b5050565b601f82111561362a576135fb816134ca565b613604846134df565b81016020851015613613578190505b61362761361f856134df565b8301826135c6565b50505b505050565b600082821c905092915050565b600061364d6000198460080261362f565b1980831691505092915050565b6000613666838361363c565b9150826002028217905092915050565b61367f8261298b565b67ffffffffffffffff81111561369857613697612c1c565b5b6136a2825461320c565b6136ad8282856135e9565b600060209050601f8311600181146136e057600084156136ce578287015190505b6136d8858261365a565b865550613740565b601f1984166136ee866134ca565b60005b82811015613716578489015182556001820191506020850194506020810190506136f1565b86831015613733578489015161372f601f89168261363c565b8355505b6001600288020188555050505b505050505050565b600081905092915050565b600061375e8261298b565b6137688185613748565b93506137788185602086016129a7565b80840191505092915050565b60006137908285613753565b915061379c8284613753565b91508190509392505050565b7f536f756c626f756e643a205468697320746f6b656e2063616e6e6f742062652060008201527f7472616e73666572726564000000000000000000000000000000000000000000602082015250565b6000613804602b83612996565b915061380f826137a8565b604082019050919050565b60006020820190508181036000830152613833816137f7565b9050919050565b600081519050919050565b600082825260208201905092915050565b60006138618261383a565b61386b8185613845565b935061387b8185602086016129a7565b613884816129d1565b840191505092915050565b60006080820190506138a46000830187612ad2565b6138b16020830186612ad2565b6138be6040830185612bbb565b81810360608301526138d08184613856565b905095945050505050565b6000815190506138ea816128fc565b92915050565b600060208284031215613906576139056128c6565b5b6000613914848285016138db565b91505092915050565b7f4e487b7100000000000000000000000000000000000000000000000000000000600052601260045260246000fd5b60006040820190506139616000830185612ad2565b61396e6020830184612bbb565b939250505056fea26469706673582212208de76dd9e8c3d6bca7683d6db1c7e3f26d82fb1b56d578f4629e727bf5ac53d764736f6c63430008140033",
  "linkReferences": {},
  "deployedLinkReferences": {}
}